:100000000C9462000C948A000C948A000C948A0B65
:100010000C948A0B0C948A0B0C948A000C948A0022
:100020000C948A000C948A000C948A000C948A0028
:100030000C948A000C948A000C948A000C948A0018
:100040000C94400B0C948A000C940E0B0C94E80A50
:100050000C948A000C948A000C948A000C948A00F8
:100060000C948A000C948A000000000024002700F1
:100070002A0000000008000201000003040700003D
:1000800000000000000000000000230026002900FE
:1000900000000000250028002B00040404040404D0
:1000A0000404020202020202030303030303010227
:1000B00004081020408001020408102001020408F6
:1000C00010202D1011241FBECFEFD8E0DEBFCDBF12
:1000D00011E0A0E0B1E0EAEFF4E202C005900D9279
:1000E000A439B107D9F723E0A4E9B1E001C01D921A
:1000F000A031B207E1F710E0C2E6D0E004C02197DA
:10010000FE010E943311C136D107C9F70E94020CCB
:100110000C947B120C940000DC011696EC9116975F
:10012000E695E770E150E33048F4F0E0EA5AFE4F1C
:100130009081923039F010F0933061F46FEF7FEFDF
:10014000CB0108951496ED91FC91608171818281BB
:10015000938108950895AF92BF92CF92DF92EF926C
:10016000FF920F931F93CF93DF936C017B018B0161
:10017000040F151FEB015E01AE18BF08C017D107B1
:1001800059F06991D601ED91FC910190F081E02D3B
:10019000C6010995892B79F7C501DF91CF911F9190
:1001A0000F91FF90EF90DF90CF90BF90AF900895A8
:1001B000FC01538D448D252F30E0842F90E0821B6D
:1001C000930B541710F0CF96089501970895FC01F2
:1001D000918D828D981761F0A28DAE0FBF2FB11D4A
:1001E0005D968C91928D9F5F9F73928F90E00895A2
:1001F0008FEF9FEF0895FC01918D828D981731F05C
:10020000828DE80FF11D858D90E008958FEF9FEFAF
:100210000895FC01918D228D892F90E0805C9F4F85
:10022000821B91098F73992708958FED91E00E94A9
:10023000090121E0892B09F420E0822F089580E054
:1002400090E0892B29F00E94150181110C94000087
:100250000895FC01A48DA80FB92FB11DA35ABF4F5B
:100260002C91848D90E001968F739927848FA689B5
:10027000B7892C93A089B1898C91837080648C9309
:10028000938D848D981306C00288F389E02D8081B8
:100290008F7D80830895EF92FF920F931F93CF93EA
:1002A000DF93EC0181E0888F9B8D8C8D98131AC0B1
:1002B000E889F989808185FF15C09FB7F894EE8998
:1002C000FF896083E889F9898081837080648083F5
:1002D0009FBF81E090E0DF91CF911F910F91FF9040
:1002E000EF900895F62E0B8D10E00F5F1F4F0F73E8
:1002F0001127E02E8C8D8E110CC00FB607FCFACFA3
:10030000E889F989808185FFF5CFCE010E94290116
:10031000F1CFEB8DEC0FFD2FF11DE35AFF4FF08273
:100320009FB7F8940B8FEA89FB8980818062CFCFD9
:10033000CF93DF93EC01888D8823B9F0AA89BB891C
:10034000E889F9898C9185FD03C0808186FD0DC007
:100350000FB607FCF7CF8C9185FFF2CF808185FF28
:10036000EDCFCE010E942901E9CFDF91CF91089511
:10037000833081F028F4813099F08230A9F008951B
:100380008730A9F08830C9F08430B1F480918000C2
:100390008F7D03C0809180008F77809380000895C7
:1003A00084B58F7784BD089584B58F7DFBCF809110
:1003B000B0008F778093B00008958091B0008F7D5A
:1003C000F9CFCF93DF93282F30E0F901EE58FF4F9C
:1003D0008491F901E255FF4FD491F901E656FF4FA0
:1003E000C491CC23A1F081110E94B801EC2FF0E060
:1003F000EE0FFF1FEA57FF4FA591B491EC91ED234B
:1004000081E090E009F480E0DF91CF91089580E0F1
:1004100090E0FACF1F93CF93DF93282F30E0F901BC
:10042000EE58FF4F8491F901E255FF4FD491F90145
:10043000E656FF4FC491CC23A9F0162F81110E94DC
:10044000B801EC2FF0E0EE0FFF1FE057FF4FA59132
:10045000B4918FB7F894EC91111108C0D095DE23B8
:10046000DC938FBFDF91CF911F910895DE2BF8CFE2
:10047000CF93DF9390E0FC01E255FF4F2491865625
:100480009F4FFC0184918823C9F090E0880F991F49
:10049000FC01E859FF4FA591B491FC01E057FF4FD3
:1004A000C591D49161110DC09FB7F8948C9120959E
:1004B00082238C938881282328839FBFDF91CF914B
:1004C0000895623051F49FB7F8943C91822F809543
:1004D00083238C93E8812E2BEFCF8FB7F894EC9188
:1004E0002E2B2C938FBFEACF3FB7F8948091DB017E
:1004F0009091DC01A091DD01B091DE0126B5A89BB1
:1005000005C02F3F19F00196A11DB11D3FBFBA2FA5
:10051000A92F982F8827BC01CD01620F711D811D65
:10052000911D42E0660F771F881F991F4A95D1F7EA
:1005300008958F929F92AF92BF92CF92DF92EF92E7
:10054000FF926B017C010E9474024B015C01C1149B
:10055000D104E104F104B9F00E9474026819790928
:100560008A099B09683E73408105910580F321E06B
:10057000C21AD108E108F10888EE880E83E0981EBF
:10058000A11CB11CE4CFFF90EF90DF90CF90BF9003
:10059000AF909F908F9008952FB7F8946091D701F6
:1005A0007091D8018091D9019091DA012FBF0895FF
:1005B0000F931F93CF93DF93EC0188819981DC0126
:1005C000ED91FC910084F185E02D0995892B09F4CA
:1005D000B3C060E070E0CB010E9499022E8D88814B
:1005E0009981DC01ED91FC910284F385E02D2111CC
:1005F00008C009958A878E3701F78E8D8F5F8E8FA1
:10060000DCCF09959E8DFE01E90FF11D82879230A6
:1006100099F09930B1F0913089F48F3F79F01E8EC6
:1006200081E088A31BA21AA28CA31DA280E0DF9107
:10063000CF911F910F910895863089F79F5F9E8F0C
:10064000BCCF8F3E61F7FE013B969E012F5E3F4F70
:1006500090E080E04191840F911D2E173F07D1F764
:10066000298930E0322F22274A89240F311D9195A4
:10067000819591092817390791F61E8EED85E13491
:1006800011F41DA22FC0E9A38F85282F30E0322F4F
:1006900022278889820F932F911D9BA38AA3EA5357
:1006A000E63108F043C0F0E0E85AFC4F0C943311F7
:1006B00082038A0394036E039403740392039603E4
:1006C0009403940394039403940394039403940372
:1006D00096039403940394039403940385E088A3FE
:1006E00081E08CA38CA1A3CF80FF02C089E0F7CF6B
:1006F00081FF02C084E0F3CF83709927892B91F3A7
:100700008AE0EDCF80FF02C087E0E9CF81FFEACF2A
:1007100082E0E5CF80FF02C088E0E1CF81FFE2CF39
:1007200083E0DDCF86E0DBCF8BE0D9CF81E088A30B
:100730001BA21AA28CA3A5CF8DA1882399F20E9497
:10074000CC020A811B812C813D81601B710B820BC5
:10075000930B0E811F8128853985601771078207E9
:10076000930708F4BFCF1E8E18A21BA21AA281E025
:100770005BCF0F931F93CF93DF93EC016F8B598F58
:100780004A8F8C010C5E1F4FFC0175969C01255E03
:100790003F4F90E080E04191840F911D2E173F075D
:1007A000D1F79195819591099B8F8C8F888D8823A6
:1007B00061F08DA1882349F060E070E0CB010E94D8
:1007C0009902CE010E94D802F4CF88819981DC0180
:1007D000ED91FC910280F381E02D4AE050E0B801F8
:1007E00009950E94CC026A837B838C839D83888DCC
:1007F00091E0811101C090E09DA381110AC06AE0DF
:1008000070E080E090E0DF91CF911F910F910C9408
:100810009902DF91CF911F910F91089520917E024F
:1008200030917F022817390771F490917C028091F2
:100830007D02981741F0E0917C02F0E0EA56FE4F0D
:10084000808190E008958FEF9FEF08950895EF92D3
:10085000FF920F931F93CF93DF93DC015C96ED9093
:10086000FC905D97E114F10479F481E090E0139637
:100870009C938E93129790E080E0DF91CF911F912F
:100880000F91FF90EF9008955196ED91FC91529742
:1008900050968C915097982F90950FB75E962C910B
:1008A0005E97122F127021FD6095F894208111231C
:1008B00019F1282B2083E7012197F1F728E0462F33
:1008C00050E0308160FF1AC0382B3083E701219758
:1008D000F1F7BA0175956795215089F7112381F0D9
:1008E0008081892380830FBF5C968D919C910197B5
:1008F000F1F781E090E0C1CF2923DCCF3923E5CFA8
:100900009081892BEFCF20917E0230917F022817B2
:10091000390771F480917D0220917C0290E0805C27
:100920009F4F821B910960E470E00E941F1108959F
:1009300090E080E0089520917E0230917F02281798
:100940003907B9F490917C0280917D02981789F063
:10095000E0917C02F0E0EA56FE4F808120917C021B
:1009600030E02F5F3F4F2F73332720937C0290E0BE
:1009700008958FEF9FEF089590E080E00895DC01E7
:100980001696EC91413051056105710589F0E695A7
:10099000E770E150E33078F4F0E0EA5AFE4F20814E
:1009A0002130C1F040F0223031F0233041F1089580
:1009B000E295EF70EDCF440F551F440F551FFC011A
:1009C00084819581480F591FDA016D917D918D9138
:1009D0009C910895440F551F440F551FFC018481BD
:1009E0009581480F591FDA016D917D918D919C91F0
:1009F0000E945F10072E000C880B990B089560E091
:100A000070E0CB010895CF93DC011696EC91AE2FE8
:100A1000A295A770A150A33030F4B0E0AA5ABE4FFF
:100A20004C91423088F4D901CC91C7FD0DC0E695B8
:100A3000E770E150E33050F4F0E0EA5AFE4F2081D5
:100A4000223020F0223091F0CF91089540E050E024
:100A5000BA010E94BF0421E0672B682B692B09F4BF
:100A600020E0622F8C2FCF910C940A020E948C0000
:100A7000683071058105910511F461E0F3CF6C30A8
:100A800071058105910501F760E0ECCFCF93DF930D
:100A9000E901DC011696EC914130510561057105C3
:100AA000F9F4E295E770E150E33030F4F0E0EA5A0F
:100AB000FE4F208121116FC041E050E060E070E006
:100AC0000E94BF046F3171058105910508F063C074
:100AD000AB0166E08A819B81DF91CF910C94B903D1
:100AE000E695E770E150E33030F4F0E0EA5AFE4F6B
:100AF0002081211108C040E050E0BA010E94BF04EB
:100B0000AB0163E0E7CF223009F045C00E948C00C2
:100B1000DC01CB010497A109B10984319105A1053C
:100B2000B10508F038C0FC01E856FA4F0C943311B7
:100B3000C805C405CB05CB05CB05CB05CB05CB053F
:100B4000CB05B405BC05CB05B805CB05C005CB0569
:100B5000CB05CB05B005AC0550E040E064E0BACF72
:100B600050E040E065E0B6CF50E040E061E0B2CF59
:100B700050E040E062E0AECF50E040E06EE0AACF4F
:100B800050E040E06DE0A6CF50E040E069E1A2CF48
:100B900041E050E0FBCFDF91CF910895AF92BF923B
:100BA000CF92DF92EF92FF920F931F93CF93DF9339
:100BB000EC01670178018A01000F111F000F111F5E
:100BC000423051056105710509F478C0FCF4411506
:100BD00051056105710591F14130510561057105BE
:100BE00009F45EC08C819D81080F191FF801C08235
:100BF000D182E282F382DF91CF911F910F91FF901A
:100C0000EF90DF90CF90BF90AF90089543305105A3
:100C10006105710509F46EC0443051056105710527
:100C200009F78F81382F307E922F9295990F907E01
:100C30008F71892B8F833036A9F60BC08E81382FA8
:100C40003E70922F9770990F817F892B8E8336305B
:100C500049F6233051F4F601309739F0908181E064
:100C60009E3F08F080E0890F8083EC81FD81E00FDA
:100C7000F11FA080B180A114B10409F4B3CFF50134
:100C800080818E3F08F0AECF815080838111AACF42
:100C9000818192810E94E911C5010E94E911A2CFD0
:100CA0008E81382F3077922F97709295907F8F7822
:100CB000892B8E83303309F095CFCBCF9E81392F8E
:100CC000331F3327331F8F81582F5370550F532BEA
:100CD000422F41709F77322F377036958C7F479522
:100CE00044274795942B9E83832B8F83533009F0A1
:100CF00079CFAFCF8F81382F3C71922F9770990F9A
:100D0000990F837E892B8F833C3009F06BCFA1CF65
:100D100061E08DE00E94380261E08DE00E940A02ED
:100D200068EE73E080E090E00E94990260E08DE060
:100D30000E940A0268EE73E080E090E00E9499024F
:100D4000EBCF2F923F924F925F926F927F928F9252
:100D50009F92AF92BF92CF92DF92EF92FF920F934A
:100D60001F93CF93DF93CDB7DEB728970FB6F894D4
:100D7000DEBF0FBECDBF242E28013901845C924016
:100D800053E0969587955A95E1F7880F991FFC01D6
:100D9000E05EFE4F20812F832181237028878F5DA5
:100DA0009E4FFC018081869586952F813885280F7E
:100DB000311D3C832B83462F50E05E834D838F8112
:100DC0009885EB81FC818E179F0708F078C09C0105
:100DD000220F331FF901E05FFE4F8081982F97703B
:100DE0004D815E819417150609F063C0982F969582
:100DF000969596958181482F4295440F407E942B7D
:100E000086958695869583702F5E3E4FF9013080DA
:100E10003294369427E0322220919401309195014A
:100E20002F5F3F4F30939501209394012F3F310561
:100E300029F020F089E591E00E948806F4E0F3159E
:100E400078F1832C912CB12CA12C292F382FA901BA
:100E500083E0440F551F8A95E1F75A8349834C5329
:100E60005D4F6A0183017201222DB501A401C60103
:100E70000E94CE05332039F0E981FA81E653FD4F17
:100E8000808180FD0DC0E981FA81EC53FD4F208106
:100E900031810280F381E02DB501A401C6010995DD
:100EA0008091940190919501019790939501809381
:100EB00094018F819885019698878F8380CF28969B
:100EC0000FB6F894DEBF0FBECDBFDF91CF911F915B
:100ED0000F91FF90EF90DF90CF90BF90AF909F90D9
:100EE0008F907F906F905F904F903F902F900895DC
:100EF0008F929F92AF92BF92CF92DF92EF92FF922A
:100F00000F931F93CF936C01FC01C681EC2FE695E4
:100F1000E770E150E33030F4F0E0EA5AFE4F8081B0
:100F2000823028F540E050E0BA01C6010E94BF04BB
:100F30004B015C018C017B0120E041E050E060E06E
:100F400070E0C6010E94CE059501840140E060E09A
:100F5000C6010E94A106CF911F910F91FF90EF90C3
:100F6000DF90CF90BF90AF909F908F900895823088
:100F700091F7C6010E948C00672B682B692B59F7EB
:100F8000EC2FE295E770E150E33030F4F0E0EA5AFC
:100F9000FE4F80818230F8F641E050E060E070E082
:100FA000C6010E94BF048B019C01D0CF0F931F93F9
:100FB000642F42E00E94A1061F910F9108950F93A4
:100FC0001F9300E010E0980140E050E0BA010E9459
:100FD000D6071F910F9108954F925F926F927F9263
:100FE0008F929F92AF92BF92FF920F931F93CF93D6
:100FF000DF93EC01EE81AE2FA695A770A150F12CE6
:10100000A33020F4B0E0AA5ABE4FFC90AC81BD8161
:101010008D909D90AD90BC901397E295E770E15054
:1010200080E0E33020F4F0E0EA5AFE4F808114962D
:101030004D905D906D907C901797813009F446C07B
:1010400040F1823009F453C08330C1F5F81236C044
:10105000F20161817281F401818192810E94721298
:10106000892B61F500E010E0980140E050E0BA0102
:10107000CE010E94D607DF91CF911F910F91FF9073
:10108000BF90AF909F908F907F906F905F904F90A8
:101090000895F11006C084149504A604B70471F4F1
:1010A000E1CF81E0F8120AC0C301B2010E9497109B
:1010B000A50194010E945A108823A1F29501840190
:1010C0004F2D61E0CE010E94A106D5CFF11007C0DF
:1010D000C501B4010E949710A3019201EBCF81E0FA
:1010E000F812ECCFA3019201C501B401E3CF82E075
:1010F000F812E4CFD0CF0F931F93642F40E00E94EB
:10110000A1061F910F9108954F925F926F927F9267
:101110008F929F92AF92BF92CF92DF92EF92FF9207
:101120000F931F93CF93DF93EC017901EE81E69546
:10113000E770E150E330F8F4F0E0EA5AFE4F8081C6
:10114000813009F476C0B8F0823009F4CFC0833022
:1011500009F478C1DF91CF911F910F91FF90EF902B
:10116000DF90CF90BF90AF909F908F907F906F90C7
:101170005F904F90089540E050E0BA01CE010E9488
:10118000BF042B013C01D7018C90E82DE150FF0BEF
:101190004F01092C000CAA08BB0825E0D22EFFEF56
:1011A0008F169F06AF06BF06A9F2D7011196ED91E3
:1011B000FC911297E80DF91D808187FD12C01396EE
:1011C000ED91FC91BD2D8B02E00DF11D11240181EB
:1011D0001281238134814081682DCE010E94A106B5
:1011E00005C08D3F69F044F48C3FD9F0E1E08E1AE0
:1011F0009108A108B108D3CF8E3F51F08F3FB1F7CE
:1012000093018201B501A401CE010E947B08EECFBB
:1012100000E010E09801B501A401CE010E94D607BC
:10122000E5CFC301B2010E9497108B019C0141E000
:10123000D3CFEC81FD814080518062807380D901E1
:101240008C90E82DE150FF0B4F01092C000CAA08EF
:10125000BB0895E0D92EFFEF8F169F06AF06BF069D
:1012600009F478CFD7011196ED91FC911297E80D12
:10127000F91D808187FD12C01396ED91FC91BD2D63
:101280008B02E00DF11D1124018112812381348133
:101290004081682DCE010E94A10605C08D3FD1F08E
:1012A00044F48C3F51F0E1E08E1A9108A108B10896
:1012B000D2CF8E3F31F08F3FB1F79301820141E0F1
:1012C000E8CF00E010E09801B501A401CE010E9432
:1012D000D607E9CFC301B2010E945F108B019C01C8
:1012E000B501A401CE010E947B08DDCFCE010E9492
:1012F0008C002B013C01D7018C90E82DE150FF0BB5
:101300004F01092C000CAA08BB0885E0D82E411417
:1013100051046104710499F1FFEF8F169F06AF0627
:10132000BF0609F417CFD7011196ED91FC911297E2
:10133000E80DF91D808187FD5AC01396ED91FC914F
:10134000BD2D8B02E00DF11D11240181128123813D
:1013500034814081682DCE010E94A10654C08D3F8A
:10136000E9F184F58B3F89F100E010E0980141E05C
:101370008C3F19F1E1E08E1A9108A108B108FFEF46
:101380008F169F06AF06BF0609F4E4CED70111966B
:10139000ED91FC911297E80DF91D808187FDDFCF5B
:1013A0001396ED91FC91BD2D8B02E00DF11D1124E2
:1013B00001811281238134814081682DCE010E94F8
:1013C000A106D8CF8F3F09F0ACF600E010E09801FD
:1013D000B501A401CE010E94D607CCCF00E010E0F9
:1013E0009801B501A401CE010E947B08C3CF8D3FB7
:1013F00001F17CF48B3F89F000E010E0980141E0BE
:101400008C3F09F4A7CFE1E08E1A9108A108B1083A
:1014100083CF8E3F29F08F3FB1F79301820103C044
:1014200000E010E09801B501A401CE010E94D607AA
:10143000EACF00E010E09801B501A401CE010E94BE
:101440007B08E1CFEC81FD81C080D180D9018C90F7
:10145000E82DE150FF0B4F01092C000CAA08BB0836
:10146000FFEF8F169F06AF06BF0609F473CED701B4
:101470001196ED91FC911297E80DF91D808187FD81
:1014800012C01396ED91FC91B5E08B02E00DF11DB9
:10149000112401811281238134814081682DCE0184
:1014A0000E94A10612C08E3F41F08F3F11F08A3F8B
:1014B00061F49301860143E0F1CF00E010E0980170
:1014C000B501A401CE010E94D607E1E08E1A910871
:1014D000A108B108C5CFEF92FF920F931F93CF934E
:1014E000DF93EC017901EE81E695E770E150E3309E
:1014F000B0F4F0E0EA5AFE4F8081823071F4CE0100
:101500000E948C00672B682B692BF9F401E0F7012E
:101510008081882379F000E00DC08230B0F440E093
:1015200050E0BA01CE010E94BF0401E0672B682B96
:10153000692B89F3F701008310E030E020E040E000
:1015400050E0BA01CE010E947B08DF91CF911F913C
:101550000F91FF90EF900895EF92FF920F931F93DA
:10156000CF93DF937C01F90180819181A281B381C6
:10157000B7FD1BC0E9010E94E101092E000CAA0B76
:10158000BB0B181619061A061B06B4F48C818111C0
:101590000CC081E08C8301E010E020E030E040E00E
:1015A00050E0BA01C7010E947B08DF91CF911F91E3
:1015B0000F91FF90EF900895892B8A2B8B2BA9F721
:1015C0008C81813091F71C8200E010E09801E7CF18
:1015D0001F920F920FB60F9211242F933F934F93A8
:1015E0005F936F937F938F939F93AF93BF93EF938B
:1015F000FF938FED91E00E942901FF91EF91BF9140
:10160000AF919F918F917F916F915F914F913F919A
:101610002F910F900FBE0F901F9018951F920F9251
:101620000FB60F9211242F938F939F93EF93FF93F5
:10163000E091EF01F091F0018081E091F501F091EE
:10164000F60182FD1BC090818091F8018F5F8F733E
:101650002091F901821741F0E091F801F0E0E152A8
:10166000FE4F958F8093F801FF91EF919F918F919D
:101670002F910F900FBE0F901F9018958081F4CF7F
:101680001F920F920FB60F9211242F933F938F93B7
:101690009F93AF93BF938091D7019091D801A09170
:1016A000D901B091DA013091D60123E0230F2D3713
:1016B00058F50196A11DB11D2093D6018093D70145
:1016C0009093D801A093D901B093DA018091DB0106
:1016D0009091DC01A091DD01B091DE010196A11D88
:1016E000B11D8093DB019093DC01A093DD01B093E9
:1016F000DE01BF91AF919F918F913F912F910F90FC
:101700000FBE0F901F90189526E8230F0296A11D7B
:10171000B11DD2CF1F920F920FB60F9211242F93AB
:101720003F934F935F936F937F938F939F93AF9369
:10173000BF93EF93FF93E0917E02F0917F02309789
:1017400049F0A685B7858585968D91FF14C09C913B
:101750008923A1F4FF91EF91BF91AF919F918F9158
:101760007F916F915F914F913F912F910F900FBE9D
:101770000F901F9018959C91892361F7A389B489D4
:101780009C918589809589238C9386899789019777
:10179000F1F7608D718DA685B785558538E020E01D
:1017A000CB010197F1F7822F90E095958795282F2F
:1017B0004C91452309F02068315091F7868D81FDC9
:1017C000209580917D0290E001968F73992730914A
:1017D0007C02381799F0A0917D02B0E0AA56BE4F66
:1017E0002C9380937D02828D938D0197F1F7A389CD
:1017F000B4898C919589892B8C93ACCF868D81602F
:10180000868FF1CFCF93DF93CDB7DEB72A970FB690
:10181000F894DEBF0FBECDBF789484B5826084BDDE
:1018200084B5816084BD85B5826085BD85B58160E4
:1018300085BD80916E00816080936E001092810062
:10184000809181008260809381008091810081601D
:1018500080938100809180008160809380008091DE
:10186000B10084608093B1008091B000816080936A
:10187000B00080917A00846080937A0080917A0031
:10188000826080937A0080917A00816080937A00F0
:1018900080917A00806880937A001092C10080EB7A
:1018A00092E09093C5028093C4028CEA9AE09093F0
:1018B000C7028093C60200E812E01093C9020093A9
:1018C000C8028091CA0281608093CA0262E088E007
:1018D0000E94380288E00E94E1018093B40288E00F
:1018E00090E0A0E0B0E08093B0029093B102A093AA
:1018F000B202B093B30245EBC42E42E0D42ED09294
:10190000CD02C092CC028FED97E09093CF028093EE
:10191000CE021093D1020093D0028091D202816056
:101920008093D202D092D502C092D40258E7A52E5D
:1019300057E0B52EB092D702A092D60284E892E08A
:101940009093D9028093D8028091DA0281608093CB
:10195000DA0218E2E12EF12C00E010E020E041E094
:1019600050E060E070E084ED92E00E94CE05D092FD
:10197000DD02C092DC02B092DF02A092DE028CE8AF
:1019800092E09093E1028093E0028091E202816014
:101990008093E202E12CF12C8701E39420E041E006
:1019A00050E060E070E08CED92E00E94CE05D092B5
:1019B000E502C092E40283E095E09093E702809311
:1019C000E60284E992E09093E9028093E802809134
:1019D000EA0281608093EA0261E08DE00E943802B1
:1019E0008DE08093B50286EB92E09093ED028093B8
:1019F000EC028BE69AE09093EF028093EE0288E986
:101A000092E09093F1028093F0028091F202816063
:101A10008093F2021092B60287EB92E09093F50267
:101A20008093F40284E898E09093F7028093F602A2
:101A30008CE992E09093F9028093F8028091FA0287
:101A400081608093FA0282E0898743E050E060E0A1
:101A500070E049835A836B837C838A874D835E83DE
:101A60006F8378871092BB021092BA028093B702FC
:101A700082E090E00E944D119093B9028093B802E9
:101A8000009721F48EE691E00E94880602969093DA
:101A9000BB028093BA027E0129E0E20EF11C10E045
:101AA00000E040E050E0BA01F5E0DF2EA2E03A2E7F
:101AB000BAEF2B2E8BEF882E9CEF992E2DEFC22E96
:101AC0003EEFB32EAA24AA94D7016D907D01A09178
:101AD000B802B091B902A00FB11FC801880F991FB9
:101AE000880F991FE2E06E1621F14C93D49E90016D
:101AF000D59E300D1124E091BA02F091BB02E20FA5
:101B0000F31F608221E030E02C0F3D1F820F931FF6
:101B1000DC014D905D906D907C9041825282638299
:101B200074824F5F5F4F6F4F7F4F30C001E010E016
:101B3000CBCFE1E0F0E0EC0FFD1F8E0F9F1FFC010B
:101B40004080518062807380F5E14F16510461043A
:101B5000710408F072C1F201E055F24F0C94331198
:101B6000130FC50DC50D130F1D0F1D0F170F170FE9
:101B70001D0F150F150F1D0F1D0F1D0F1D0F1D0F15
:101B80001D0F190F1D0F1B0F190FAC9201301105FE
:101B900009F0CCCF8CEB92E09093FD028093FC0295
:101BA00086E495E09093FF028093FE0280EA92E043
:101BB0009093010380930003809102038E7F8093B2
:101BC000020319868AE090E0A0E0B0E089839A835E
:101BD000AB83BC831A868BE090E0A0E0B0E08D83FD
:101BE0009E83AF83B8871092BD021092BC02109200
:101BF000BF021092BE028FE190E00E944D118C0155
:101C0000FC011382128288EE93E0A0E0B0E08483AE
:101C10009583A683B78388E491E091838083178AB4
:101C2000168A118E108E138E128E158E148E668D5E
:101C30006E7F6D7F668F6695617081E068278BE0AF
:101C40000E940A0261E08BE00E943802E9EBF0E0BA
:101C5000E491D8015096EC93E5EAF0E0E491F0E0ED
:101C6000EE0FFF1FE057FF4F85919491F801928B83
:101C7000818B60E08AE00E943802D8015E968C91E8
:101C800081FD04C061E08AE00E940A023AE0F32E7E
:101C9000F801F486E8EBF0E0E491D8011D96EC93AE
:101CA000E4EAF0E0E491F0E0EE0FFF1FEA57FF4FA7
:101CB00085919491F801978786871093BD020093D0
:101CC000BC0286E290E00E944D1126E2DC011D92EA
:101CD0002A95E9F744EF51E060E070E0FC014683AB
:101CE000578360877187E6E0F1E0DC01549601904C
:101CF0000D92FA94E1F722E0DC015F962C93909329
:101D0000BF028093BE028DE991E0F801958F848F28
:101D10008DEB90E0978B868B8BE991E0918F808F94
:101D20008CE291E0938F828F809168008160809334
:101D3000680094852DE630E0983050F02BE630E0D6
:101D40009E3030F02CE630E0963110F030E020E0AC
:101D5000D80154963C932E935397292F30E0983016
:101D600008F079C081E001C0880F9A95EAF7F80180
:101D7000858B848D958D0197F1F7828D938D892BBD
:101D800029F1E0917E02F0917F020E171F07F1F01A
:101D9000309739F0A389B4899C91858980958923EE
:101DA0008C93F801868D8E7F868F10927D02109223
:101DB0007C0210937F0200937E020388F489E02D59
:101DC0008081D80155969C91892B80830091BE0219
:101DD0001091BF028091BC029091BD02F8019183E5
:101DE000808381E0808F50E040E06CE0C8010E9479
:101DF000B9030E94CC026B017C01C8010E94D80289
:101E0000811136C00E94CC026C197D098E099F0990
:101E1000613D77408105910558F560E070E0CB01A8
:101E20000E949902EACFBC92B1CECC92AFCE9C92E6
:101E3000ADCE8C92ABCE2C92A9CE4C93D49EF00119
:101E4000D59EF00D11242091BA023091BB02E20F11
:101E5000F31F30825DCE9E3040F42850310981E07E
:101E600001C0880F2A95EAF782CF2E503109F7CFAB
:101E700068EC70E080E090E00E949902D8019496AE
:101E80001C92949790968C91843009F4CCC0893040
:101E900009F4C9C0E091BC02F091BD023097C9F0CD
:101EA00088E491E09183808380917E0290917F020B
:101EB000E817F90759F4A389B4899C91858980951D
:101EC00089238C9310927F0210927E02CF010E9490
:101ED000E9118091BE029091BF020E94E911109217
:101EE000BD021092BC021092BF021092BE0280ECA2
:101EF00092E090930503809304038CEE97E0909317
:101F000007038093060388EA92E090930903809385
:101F1000080380910A03816080930A0319821A8260
:101F20001B821C82E12CF12C870120E041E050E073
:101F300060E070E084E093E00E94CE050E94CC0255
:101F40006093C0027093C1028093C2029093C30257
:101F50001BE0E12EF12C00E010E022E040E050E038
:101F6000BA018CEC92E00E94CE052091CC02309117
:101F7000CD02E091CE02F091CF0240E050E0BA01F4
:101F80008CEC92E009950E94CC026093C0027093A1
:101F9000C1028093C2029093C30220E0C22E20E0CF
:101FA000D22E1FE0E12EF12C00E010E022E040E014
:101FB00050E0BA0184EC92E00E94CE052091C40268
:101FC0003091C502E091C602F091C70240E050E0B6
:101FD000BA0184EC92E009950E94CC020091C00203
:101FE0001091C1022091C2023091C30260177107A3
:101FF0008207930770F16093C0027093C1028093CF
:10200000C2029093C3026F3FBFEF7B078B079B0712
:10201000D1F3C114D10429F20E941501882309F2D9
:102020000E940000BECFE091BE02F091BF0284EF9B
:1020300091E0A0E0B0E086839783A087B18744E178
:1020400050E066E08091BE029091BF020E94B90309
:102050004ECF6FEF7FEFCB01D6CFEFEDF1E01382E4
:10206000128288EE93E0A0E0B0E084839583A6839B
:10207000B78386E391E09183808385EC90E0958738
:10208000848784EC90E09787868780EC90E0918B42
:10209000808B81EC90E0938B828B82EC90E0958B2F
:1020A000848B86EC90E0978B868B118E128E138E2C
:1020B000148E08950E94D21008F481E008950E94C1
:1020C00066106894B1110C94191108950E94FE10C5
:1020D00088F09F5798F0B92F9927B751B0F0E1F0E9
:1020E000660F771F881F991F1AF0BA95C9F714C099
:1020F000B13091F00E941811B1E008950C941811BC
:10210000672F782F8827B85F39F0B93FCCF38695D1
:1021100077956795B395D9F73EF49095809570952E
:1021200061957F4F8F4F9F4F0895E89409C097FBAB
:102130003EF490958095709561957F4F8F4F9F4F9E
:102140009923A9F0F92F96E9BB279395F6958795E2
:1021500077956795B795F111F8CFFAF4BB0F11F4A5
:1021600060FF1BC06F5F7F4F8F4F9F4F16C088234C
:1021700011F096E911C0772321F09EE8872F762F82
:1021800005C0662371F096E8862F70E060E02AF0C3
:102190009A95660F771F881FDAF7880F96958795AF
:1021A00097F90895990F0008550FAA0BE0E8FEEF84
:1021B00016161706E807F907C0F012161306E4070B
:1021C000F50798F0621B730B840B950B39F40A2604
:1021D00061F0232B242B252B21F408950A2609F4E2
:1021E000A140A6958FEF811D811D089557FD905840
:1021F000440F551F59F05F3F71F04795880F97FBCB
:10220000991F61F09F3F79F0879508951216130684
:102210001406551FF2CF4695F1DF08C016161706B3
:102220001806991FF1CF86957105610508940895E8
:10223000E894BB2766277727CB0197F9089597FB8A
:10224000072E16F4009407D077FD09D00E943911AB
:1022500007FC05D03EF4909581959F4F08957095A9
:1022600061957F4F0895EE0FFF1F0590F491E02DCB
:102270000994AA1BBB1B51E107C0AA1FBB1FA617CD
:10228000B70710F0A61BB70B881F991F5A95A9F71F
:1022900080959095BC01CD0108950F931F93CF9326
:1022A000DF938230910510F482E090E0E0910E031C
:1022B000F0910F0330E020E0B0E0A0E0309799F417
:1022C0002115310509F44AC0281B390B243031058A
:1022D000D8F58A819B816115710589F1FB01938392
:1022E0008283FE0111C04081518102811381481710
:1022F0005907E0F04817590799F4109761F01296C2
:102300000C93129713961C933296CF01DF91CF91C5
:102310001F910F91089500930E0310930F03F4CFB4
:102320002115310551F04217530738F0A901DB019F
:102330009A01BD01DF01F801C1CFEF01F9CF909300
:102340000F0380930E03CDCFFE01E20FF31F8193A5
:1023500091932250310939832883D7CF20910C03E0
:1023600030910D03232B41F42091020130910301A0
:1023700030930D0320930C03209100013091010153
:102380002115310541F42DB73EB74091040150911C
:102390000501241B350BE0910C03F0910D03E217AE
:1023A000F307A0F42E1B3F0B2817390778F0AC0178
:1023B0004E5F5F4F2417350748F04E0F5F1F509355
:1023C0000D0340930C03819391939FCFF0E0E0E0E5
:1023D0009CCFCF93DF930097E9F0FC0132971382F3
:1023E0001282A0910E03B0910F03ED0130E020E0C6
:1023F0001097A1F420813181820F931F20910C034B
:1024000030910D032817390709F061C0F0930D03CF
:10241000E0930C03DF91CF910895EA01CE17DF0717
:10242000E8F54A815B819E0141155105B1F7E9014B
:10243000FB83EA8349915991C40FD51FEC17FD071F
:1024400061F4808191810296840F951FE90199833F
:102450008883828193819B838A83F0E0E0E01296F7
:102460008D919C9113970097B9F52D913C911197FF
:10247000CD010296820F931F20910C0330910D0322
:102480002817390739F6309751F510920F0310923B
:102490000E03B0930D03A0930C03BCCFD383C28370
:1024A00040815181840F951FC817D90761F44E5F91
:1024B0005F4F88819981480F591F518340838A81DA
:1024C0009B81938382832115310509F0B0CFF0936E
:1024D0000F03E0930E039ECFFD01DC01C0CF1382FA
:1024E0001282D7CFFB01DC018D9101908019011080
:0A24F000D9F3990B0895F894FFCF7B
:1024FA000000100380007EFF06000100000000EFCC
:10250A004000300038203800200011001800280050
:10251A00000401040204030404000404050807007B
:10252A000704000000004B01AB00D8009801090124
:10253A00E700FB00000000002704AB00BC042604EF
:10254A0083049B040E0401020363616C6C2D6465B1
:10255A0070746820746F6F20646565702E00696EF0
:10256A0069745F66756E635F747269676765723AEC
:10257A00206E6F7420656E6F756768206D656D6F6C
:04258A007279000062
:107E0000112484B714BE81FFF0D085E080938100F7
:107E100082E08093C00088E18093C10086E0809377
:107E2000C20080E18093C4008EE0C9D0259A86E02C
:107E300020E33CEF91E0309385002093840096BBD3
:107E4000B09BFECF1D9AA8958150A9F7CC24DD24C4
:107E500088248394B5E0AB2EA1E19A2EF3E0BF2EE7
:107E6000A2D0813461F49FD0082FAFD0023811F036
:107E7000013811F484E001C083E08DD089C08234E0
:107E800011F484E103C0853419F485E0A6D080C0E4
:107E9000853579F488D0E82EFF2485D0082F10E0AE
:107EA000102F00270E291F29000F111F8ED06801E7
:107EB0006FC0863521F484E090D080E0DECF843638
:107EC00009F040C070D06FD0082F6DD080E0C81688
:107ED00080E7D80618F4F601B7BEE895C0E0D1E017
:107EE00062D089930C17E1F7F0E0CF16F0E7DF06D8
:107EF00018F0F601B7BEE89568D007B600FCFDCFD4
:107F0000A601A0E0B1E02C9130E011968C91119780
:107F100090E0982F8827822B932B1296FA010C0160
:107F200087BEE89511244E5F5F4FF1E0A038BF0790
:107F300051F7F601A7BEE89507B600FCFDCF97BE46
:107F4000E89526C08437B1F42ED02DD0F82E2BD052
:107F50003CD0F601EF2C8F010F5F1F4F84911BD097
:107F6000EA94F801C1F70894C11CD11CFA94CF0C13
:107F7000D11C0EC0853739F428D08EE10CD085E9AC
:107F80000AD08FE07ACF813511F488E018D01DD067
:107F900080E101D065CF982F8091C00085FFFCCF94
:107FA0009093C60008958091C00087FFFCCF809118
:107FB000C00084FD01C0A8958091C6000895E0E648
:107FC000F0E098E1908380830895EDDF803219F02E
:107FD00088E0F5DFFFCF84E1DECF1F93182FE3DFCA
:107FE0001150E9F7F2DF1F91089580E0E8DFEE27F6
:047FF000FF270994CA
:027FFE00040479
:0400000300007E007B
:00000001FF
